:100000000C947C000C94D6040C94AF040C94A400C3
:100010000C94A4000C94A4000C94A4000C94A400D0
:100020000C94A4000C94A4000C94A4000C94A400C0
:100030000C94A4000C94A4000C94A4000C94A400B0
:100040000C9465040C94A4000C9433040C940D04DB
:100050000C94A4000C94A4000C94A4000C94A40090
:100060000C94A4000C94A4004E414E494E4954599E
:10007000494E46CDCCCC3D0AD7233C17B7D1387773
:10008000CC2B329595E6241FB14F0A000020410089
:1000900000C84200401C4620BCBE4CCA1B0E5AAED3
:1000A000C59D7400000000240027002A0000000005
:1000B00000250028002B00040404040404040402A6
:1000C00002020202020303030303030102040810F5
:1000D00020408001020408102001020408102000C2
:1000E00000000800020100000304070000000000F7
:1000F00000000000FD04600811241FBECFEFD8E00F
:10010000DEBFCDBF21E0A8E3B1E001C01D92A03F5A
:10011000B207E1F711E0A0E0B1E0EAE6FCE102C0DD
:1001200005900D92A833B107D9F710E0CBE7D0E0E6
:1001300004C02197FE010E94270CCA37D107C9F7D6
:100140000E9438050C94280E0C9400008091410107
:100150008F5F809341010895AF92BF92CF92DF925B
:10016000EF92FF920F931F93CF93DF936C017B016C
:100170008B01040F151FEB015E01AE18BF08C017FD
:10018000D10759F06991D601ED91FC910190F08170
:10019000E02DC6010995892B79F7C501DF91CF9133
:1001A0001F910F91FF90EF90DF90CF90BF90AF9095
:1001B0000895FC01538D448D252F30E0842F90E06D
:1001C000821B930B541710F0CF9608950197089552
:1001D000FC01918D828D981761F0A28DAE0FBF2F1B
:1001E000B11D5D968C91928D9F5F9F73928F90E071
:1001F00008958FEF9FEF0895FC01918D828D9817E0
:1002000031F0828DE80FF11D858D90E008958FEF1C
:100210009FEF0895FC01918D228D892F90E0805CE5
:100220009F4F821B91098F739927089587E491E06E
:100230000E940A0121E0892B09F420E0822F089511
:10024000FC01A48DA80FB92FB11DA35ABF4F2C914B
:10025000848D90E001968F739927848FA689B78942
:100260002C93A089B1898C91837080648C93938D39
:10027000848D981306C00288F389E02D80818F7DDC
:1002800080830895EF92FF920F931F93CF93DF9394
:10029000EC0181E0888F9B8D8C8D98131AC0E889C2
:1002A000F989808185FF15C09FB7F894EE89FF8991
:1002B0006083E889F98980818370806480839FBF2F
:1002C00081E090E0DF91CF911F910F91FF90EF902F
:1002D0000895F62E0B8D10E00F5F1F4F0F7311273F
:1002E000E02E8C8D8E110CC00FB607FCFACFE8897A
:1002F000F989808185FFF5CFCE010E942001F1CFE1
:10030000EB8DEC0FFD2FF11DE35AFF4FF0829FB7ED
:10031000F8940B8FEA89FB8980818062CFCFCF93DD
:10032000DF93EC01888D8823B9F0AA89BB89E8891D
:10033000F9898C9185FD03C0808186FD0DC00FB6C3
:1003400007FCF7CF8C9185FFF2CF808185FFEDCF41
:10035000CE010E942001E9CFDF91CF91089590E076
:10036000FC01E152FF4F2491FC01E553FF4F349112
:10037000FC01E954FF4FE491EE23C9F0222339F048
:10038000233001F1A8F4213019F1223029F1F0E0F5
:10039000EE0FFF1FE355FF4FA591B4918FB7F8946F
:1003A000EC91611126C030953E233C938FBF089598
:1003B0002730A9F02830C9F0243049F78091800017
:1003C0008F7D03C0809180008F7780938000DFCF86
:1003D00084B58F7784BDDBCF84B58F7DFBCF8091D3
:1003E000B0008F778093B000D2CF8091B0008F7D26
:1003F000F9CF3E2BDACFCF93DF9390E0FC01E553AA
:10040000FF4F249189549F4FFC0184918823D1F0A0
:1004100090E0880F991FFC01ED55FF4FA591B49115
:10042000FC01E355FF4FC591D49161110EC09FB7F8
:10043000F8948C91E22FE0958E238C932881E2230F
:10044000E8839FBFDF91CF9108958FB7F894EC9127
:10045000E22BEC938FBFF6CF1F93CF93DF93182F30
:10046000EB0161E00E94FB01209739F460E0812FED
:10047000DF91CF911F910C94AF01CF3FD10511F4C3
:1004800061E0F5CFE12FF0E0E152FF4FE491E3307E
:1004900031F140F4E130B1F0E230E1F0C038D105A3
:1004A0007CF7E4CFE73029F1E83059F1E430B1F7D7
:1004B00080918000806280938000D0938B00C093F5
:1004C0008A0004C084B5806884BDC7BDDF91CF9128
:1004D0001F91089584B5806284BDC8BDF7CF809117
:1004E0008000806880938000D0938900C09388004A
:1004F000EDCF8091B00080688093B000C093B300CE
:10050000E5CF8091B00080628093B000C093B400CA
:10051000DDCF089560E088E00E94AF0160E087E0F1
:100520000E94AF0160E08CE00E94AF0160E08BE0D0
:100530000C94AF01CF92DF92EF92FF9260E088E0DF
:100540000E94AF0161E087E00E94AF016091040169
:100550007091050180910601909107010E94BE0BE8
:100560006B0186E00E942C0260E08CE00E94AF01EB
:1005700061E08BE00E94AF01B6018AE0FF90EF904E
:10058000DF90CF900C942C02CF92DF92EF92FF92EB
:1005900061E088E00E94AF0160E087E00E94AF0167
:1005A000609104017091050180910601909107010D
:1005B0000E94BE0B6B0186E00E942C0261E08CE081
:1005C0000E94AF0160E08BE00E94AF01B6018AE0BB
:1005D000FF90EF90DF90CF900C942C02FC01808173
:1005E0009181009711F00C94C90C0895FC012481AD
:1005F0003581232B39F421E0FB018081882349F0E8
:1006000020E007C0808191810E94180E21E0892B93
:10061000B9F7822F08950F931F93CF93DF93EC01C7
:1006200088819981009759F02A813B8126173707E5
:1006300030F081E0DF91CF911F910F9108958B01F0
:100640006F5F7F4F0E94520D009759F09983888306
:100650001B830A832C813D81232B59F7FC011082D7
:10066000E8CF80E0E7CFEF92FF920F931F93CF93F5
:10067000DF93EC017B018A01BA010E940B03288100
:100680003981811114C02115310519F0C9010E9469
:10069000C90C198218821D821C821B821A82CE010B
:1006A000DF91CF911F910F91FF90EF9008951D83DF
:1006B0000C83B701C9010E94210EF1CFCF92DF92C6
:1006C000EF92FF920F931F93CF93DF93EC016B0197
:1006D0007A014617570720F48D2D6A01E62EF82E71
:1006E000198218821B821A821D821C8250E040E00F
:1006F00066E371E0CE010E9433030091E80110919E
:10070000E901C016D10640F5E016F10608F48701AC
:10071000E091E401F091E501E00FF11FF08010821B
:100720006091E4017091E5016C0D7D1D611571050D
:10073000E9F0FB0101900020E9F73197AF01461B7A
:10074000570BCE010E9433038091E4019091E501A3
:10075000080F191FF801F082CE01DF91CF911F9190
:100760000F91FF90EF90DF90CF900895888199814D
:10077000009711F00E94C90C198218821D821C82F8
:100780001B821A82E1CFFF920F931F93CF93DF93C7
:1007900000D0CDB7DEB7FF24F39487E491E00E9448
:1007A0000A01892B61F187E491E00E94E8008A3018
:1007B00019F189831A820091E8011091E9010F5F14
:1007C0001F4FB80184EE91E00E940B03882329F3A8
:1007D0002091E4013091E5018091E8019091E901D7
:1007E000BE016F5F7F4F820F931F0E94210E1093F7
:1007F000E9010093E801D1CFF0924601CECF0F90EE
:100800000F90DF91CF911F910F91FF9008950E945B
:10081000160181110C94C30308951F920F920FB615
:100820000F9211242F933F934F935F936F937F9376
:100830008F939F93AF93BF93EF93FF9387E491E0E0
:100840000E942001FF91EF91BF91AF919F918F91F5
:100850007F916F915F914F913F912F910F900FBEBC
:100860000F901F9018951F920F920FB60F921124A0
:100870002F938F939F93EF93FF93E0915701F09104
:1008800058018081E0915D01F0915E0182FD1BC005
:100890009081809160018F5F8F7320916101821739
:1008A00041F0E0916001F0E0E95BFE4F958F8093AD
:1008B0006001FF91EF919F918F912F910F900FBE4B
:1008C0000F901F9018958081F4CF1F920F920FB652
:1008D0000F9211242F933F938F939F93AF93BF93C6
:1008E00080913D0190913E01A0913F01B091400166
:1008F00030913C0123E0230F2D3758F50196A11DBF
:10090000B11D20933C0180933D0190933E01A09343
:100910003F01B09340018091380190913901A0913D
:100920003A01B0913B010196A11DB11D80933801A0
:1009300090933901A0933A01B0933B01BF91AF91DD
:100940009F918F913F912F910F900FBE0F901F900D
:10095000189526E8230F0296A11DB11DD2CF1F9234
:100960000F920FB60F9211242F933F934F935F93E3
:100970006F937F938F939F93AF93BF93EF93FF9367
:10098000E0910201F09103010995FF91EF91BF9170
:10099000AF919F918F917F916F915F914F913F9117
:1009A0002F910F900FBE0F901F9018951F920F92CE
:1009B0000FB60F9211242F933F934F935F936F9332
:1009C0007F938F939F93AF93BF93EF93FF93E091A8
:1009D0000001F09101010995FF91EF91BF91AF9155
:1009E0009F918F917F916F915F914F913F912F9147
:1009F0000F900FBE0F901F901895E7E4F1E013825F
:100A0000128288EE93E0A0E0B0E084839583A68311
:100A1000B78382E191E09183808385EC90E09587B4
:100A2000848784EC90E09787868780EC90E0918BB8
:100A3000808B81EC90E0938B828B82EC90E0958BA5
:100A4000848B86EC90E0978B868B118E128E138EA2
:100A5000148EE4EEF1E0118210821382128215826C
:100A6000148250E040E066E371E0CF010C94330360
:100A7000CF93DF93CDB7DEB7A1970FB6F894DEBF63
:100A80000FBECDBF789484B5826084BD84B581608B
:100A900084BD85B5826085BD85B5816085BD809149
:100AA0006E00816080936E001092810080918100C1
:100AB00082608093810080918100816080938100B9
:100AC000809180008160809380008091B10084607B
:100AD0008093B1008091B00081608093B0008091DC
:100AE0007A00846080937A0080917A00826080939B
:100AF0007A0080917A00816080937A0080917A00F8
:100B0000806880937A001092C10061E088E00E94C2
:100B1000FB0161E087E00E94FB0161E086E00E944A
:100B2000FB0161E08CE00E94FB0161E08BE00E9430
:100B3000FB0161E08AE00E94FB01E0915701F09126
:100B4000580182E08083E0915301F09154011082BA
:100B5000E0915501F09156018FEC808310925F0176
:100B6000E0915B01F0915C0186E08083E0915901A6
:100B7000F0915A01808180618083E0915901F09168
:100B80005A01808188608083E0915901F0915A0177
:100B9000808180688083E0915901F0915A018081C1
:100BA0008F7D808360E082E00E94FB011092410112
:100BB000109242011092430110924401109245019B
:100BC00086EA90E090930101809300018091690092
:100BD0008C7F826080936900E89A84E1382E9CE3E0
:100BE000292E2AE0422E512C612C712CC12CD12CA3
:100BF00030EAE32E31E4F32E80914601882351F050
:100C000050E040E066E371E084EE91E00E9433033F
:100C10001092460142E050E070E060E0CE010196A3
:100C20000E945E0360E271E0CE0101960E94F6022E
:100C3000182FCE0101960E94EE02112309F10E94A5
:100C40008A024091E8015091E90162E070E0CE0132
:100C500001960E945E0389819A81009709F4FCC184
:100C60000E9464086093040170930501809306015B
:100C700090930701CE0101960E94EE020E94C402E9
:100C800042E050E070E060E0CE0101960E945E0319
:100C900063E271E0CE0101960E94F602182FCE01A8
:100CA00001960E94EE02112309F10E948A024091EE
:100CB000E8015091E90162E070E0CE0101960E94E6
:100CC0005E0389819A81009709F4CAC10E94640871
:100CD00060930401709305018093060190930701CE
:100CE000CE0101960E94EE020E949A0241E050E07D
:100CF00070E060E0CE0101960E945E0366E271E062
:100D0000CE0101960E94F602182FCE0101960E9494
:100D1000EE0211110E94C40241E050E070E060E078
:100D2000CE0101960E945E0368E271E0CE01019659
:100D30000E94F602182FCE0101960E94EE021111B8
:100D40000E949A0241E050E070E060E0CE0101961E
:100D50000E945E036AE271E0CE0101960E94F602F3
:100D6000182FCE0101960E94EE02112351F0C0927D
:100D70000401D0920501E0920601F09207010E9461
:100D8000C40241E050E070E060E0CE0101960E94B4
:100D90005E036CE271E0CE0101960E94F602182F0C
:100DA000CE0101960E94EE0211110E948A0241E0DA
:100DB00050E070E060E0CE0101960E945E0361E2C7
:100DC00071E0CE0101960E94F602182FCE01019625
:100DD0000E94EE02112321F10E948A0220E030E0FD
:100DE00040E751E460910401709105018091060192
:100DF000909107010E94520B4B015C0120E030E012
:100E00004FE753E40E94F40B87FF2EC18092040148
:100E100090920501A0920601B09207010E94C402BF
:100E200041E050E070E060E0CE0101960E945E0378
:100E30006EE271E0CE0101960E94F602182FCE01FB
:100E400001960E94EE02112329F10E948A0220E0FD
:100E500030E040E751E46091040170910501809118
:100E60000601909107010E94510B4B015C0120E0AB
:100E700030E040EA51E40E94D90918160CF001C193
:100E80008092040190920501A0920601B0920701A0
:100E90000E94C40241E050E070E060E0CE010196A3
:100EA0000E945E0360E371E0CE0101960E94F602AB
:100EB000182FCE0101960E94EE02112321F10E940B
:100EC0008A0220E030E040E751E460910401709133
:100ED000050180910601909107010E94520B4B0180
:100EE0005C0120E030E04FE753E40E94F40B87FF01
:100EF000D1C08092040190920501A0920601B092A7
:100F000007010E949A0241E050E070E060E0CE01EB
:100F100001960E945E0362E371E0CE0101960E9499
:100F2000F602182FCE0101960E94EE02112329F13C
:100F30000E948A0220E030E040E751E46091040121
:100F40007091050180910601909107010E94510B5B
:100F50004B015C0120E030E040EA51E40E94D909F5
:100F600018160CF0A4C08092040190920501A09282
:100F70000601B09207010E949A022FB7F89480915F
:100F80003D0190913E01A0913F01B09140012FBFE2
:100F9000409142015091430160914401709145019B
:100FA000841B950BA60BB70B883E9340A105B1059A
:100FB00008F44AC02FB7F89480913D0190913E010A
:100FC000A0913F01B09140012FBF809342019093C7
:100FD0004301A0934401B093450180914101632DE9
:100FE0000E94F90B829D90011124032E000C440BEA
:100FF000550B19A28E010F5D1F4FCA01B901A30144
:1010000092010E94050C605DF80162938F01211529
:1010100031054105510589F7309761F001900020B5
:10102000E9F73197AF01401B510BB80187E491E01C
:101030000E94AC0042E050E064E371E087E491E09C
:101040000E94AC00109241010E941601882309F40D
:10105000D3CD0E94C303D0CD60E070E0CB0102CEBF
:1010600060E070E0CB0134CE80E090E0AFE7B3E425
:101070008093040190930501A0930601B0930701AA
:10108000CDCEC0920401D0920501E0920601F0920B
:101090000701FECE80E090E0AFE7B3E48093040167
:1010A00090930501A0930601B09307012ACFC09247
:1010B0000401D0920501E0920601F09207015BCF96
:1010C00084EE91E00C94EE02662777270C94680872
:1010D000B0E0A0E0EEE6F8E00C94110B5C017B01BF
:1010E0006115710519F0DB018D939C9385010F5FEC
:1010F0001F4FF501D0818D2F90E00E94B8096C013F
:10110000892BB9F5DD32B9F50F5F1F4FD501119667
:10111000DC91C1E05801F1E0AF1AB10843E050E0C2
:1011200060E770E0C5010E94C109892B69F568017B
:1011300082E0C80ED11C45E050E06BE670E0C601CD
:101140000E94C109892B21F4680197E0C90ED11CC6
:10115000E114F10419F0D701CD92DC9260E070E067
:1011600080E89FEFC111FFC060E070E080E89FE77A
:10117000FAC05801BBCFDB3229F485010E5F1F4F47
:10118000F501D181C0E0C6CF43E050E068E670E0F1
:10119000C5010E94C109892BE9F0F80110E000E0C7
:1011A00020E030E0A9015F01B0ED8B2E8D0E89E0CB
:1011B0008815C8F19C2E689491F88C2F8870C2FF16
:1011C00016C0811102C00F5F1F4F3196D501DC910F
:1011D000C92DE9CFE114F10429F00E5F1F4FF7018B
:1011E0001183008360E070E080EC9FE7BCC088233F
:1011F00011F001501109A5E0B0E00E94000B9B0125
:10120000AC01220F331F441F551F280D311D411DF6
:10121000511D283999E93907490799E15907A8F279
:10122000C6609C2ED2CFAEEF8A1206C0C3FD3CC072
:101230009C2E689493F8C9CFDF7DD534A9F58081C1
:101240008D3239F4C061DF011296818162E070E075
:1012500006C0DF018B32C1F3119661E070E080536C
:101260005D01A61AB70A8A30F8F4E0E8CE16ECE081
:10127000DE065CF4B601660F771F660F771FC60E99
:10128000D71ECC0CDD1CC80ED11C5D01FFEFAF1AC0
:10129000BF0A8C9180538A30A8F1C4FF03C0D19457
:1012A000C194D1080C0D1D1DC1FF09C0E114F1044A
:1012B00031F081E0A81AB108D701AD92BC92CA0101
:1012C000B9010E94DE09C370C33009F490584B0184
:1012D0005C0120E030E0A9010E94D909882309F4CB
:1012E00040C0CFE9D0E017FF05C011950195110965
:1012F000C7E8D0E06E01B8E1CB1AD10880E2E82E51
:10130000F12C0FC0D501B1CFFE012591359145914A
:1013100054910E191F09C501B4010E943F0A4B01E7
:101320005C01D501C4010E151F0574F72497F594CF
:10133000E794CC16DD06A9F78A2F880F8B2F881F1C
:101340008F3F49F020E030E0A901C501B4010E94BF
:10135000D909811106C082E290E09093EB0180935D
:10136000EA01C501B401CDB7DEB7ECE00C942D0B5A
:1013700091110C94AC0A803219F089508550C8F74D
:101380000895FB01DC014150504088F08D9181347B
:101390001CF08B350CF4805E659161341CF06B356C
:1013A0000CF4605E861B611171F3990B0895881B24
:1013B000FCCF0E941B0A08F481E00895E89409C05C
:1013C00097FB3EF490958095709561957F4F8F4F78
:1013D0009F4F9923A9F0F92F96E9BB279395F6958E
:1013E000879577956795B795F111F8CFFAF4BB0F0C
:1013F00011F460FF1BC06F5F7F4F8F4F9F4F16C070
:10140000882311F096E911C0772321F09EE8872FF9
:10141000762F05C0662371F096E8862F70E060E0B5
:101420002AF09A95660F771F881FDAF7880F96952E
:10143000879597F90895990F0008550FAA0BE0E8D2
:10144000FEEF16161706E807F907C0F01216130686
:10145000E407F50798F0621B730B840B950B39F4C6
:101460000A2661F0232B242B252B21F408950A262C
:1014700009F4A140A6958FEF811D811D08950E945A
:10148000520A0C94C60A0E94B80A38F00E94BF0A99
:1014900020F0952311F00C94AF0A0C94B50A112496
:1014A0000C94FA0A0E94D70A70F3959FC1F3950F26
:1014B00050E0551F629FF001729FBB27F00DB11DD8
:1014C000639FAA27F00DB11DAA1F649F6627B00D68
:1014D000A11D661F829F2227B00DA11D621F739F51
:1014E000B00DA11D621F839FA00D611D221F749F5F
:1014F0003327A00D611D231F849F600D211D822FA6
:10150000762F6A2F11249F5750409AF0F1F08823CC
:101510004AF0EE0FFF1FBB1F661F771F881F9150F9
:101520005040A9F79E3F510580F00C94AF0A0C94EF
:10153000FA0A5F3FE4F3983ED4F386957795679572
:10154000B795F795E7959F5FC1F7FE2B880F911D23
:101550009695879597F9089599278827089597F97B
:101560009F6780E870E060E008959FEF80EC089549
:1015700000240A9416161706180609060895002472
:101580000A9412161306140605060895092E0394EC
:10159000000C11F4882352F0BB0F40F4BF2B11F460
:1015A00060FF04C06F5F7F4F8F4F9F4F089557FDBF
:1015B0009058440F551F59F05F3F71F04795880FC1
:1015C00097FB991F61F09F3F79F087950895121658
:1015D00013061406551FF2CF4695F1DF08C0161604
:1015E00017061806991FF1CF8695710561050894B5
:1015F0000895E894BB2766277727CB0197F90895CC
:101600000E94420BA59F900DB49F900DA49F800D4A
:10161000911D112408952F923F924F925F926F92E5
:101620007F928F929F92AF92BF92CF92DF92EF9272
:10163000FF920F931F93CF93DF93CDB7DEB7CA1BF3
:10164000DB0B0FB6F894DEBF0FBECDBF09942A881E
:10165000398848885F846E847D848C849B84AA84C6
:10166000B984C884DF80EE80FD800C811B81AA8153
:10167000B981CE0FD11D0FB6F894DEBF0FBECDBF1E
:10168000ED010895A29FB001B39FC001A39F700D0B
:10169000811D1124911DB29F700D811D1124911D7A
:1016A00008955058BB27AA270E94690B0C94C60ABC
:1016B0000E94B80A38F00E94BF0A20F039F49F3F18
:1016C00019F426F40C94B50A0EF4E095E7FB0C949B
:1016D000AF0AE92F0E94D70A58F3BA1762077307B7
:1016E0008407950720F079F4A6F50C94F90A0EF416
:1016F000E0950B2EBA2FA02D0B01B90190010C0122
:10170000CA01A0011124FF27591B99F0593F50F439
:10171000503E68F11A16F040A22F232F342F442791
:10172000585FF3CF469537952795A795F040539589
:10173000C9F77EF41F16BA0B620B730B840BBAF059
:101740009150A1F0FF0FBB1F661F771F881FC2F7C4
:101750000EC0BA0F621F731F841F48F487957795D8
:101760006795B795F7959E3F08F0B0CF9395880F92
:1017700008F09927EE0F9795879508950E94C50B5D
:101780006894B1110C94FA0A08950E94DF0A88F057
:101790009F5798F0B92F9927B751B0F0E1F0660F35
:1017A000771F881F991F1AF0BA95C9F714C0B13076
:1017B00091F00E94F90AB1E008950C94F90A672F9C
:1017C000782F8827B85F39F0B93FCCF386957795A5
:1017D0006795B395D9F73EF490958095709561958E
:1017E0007F4F8F4F9F4F08950E941B0A08F48FEF81
:1017F0000895991B79E004C0991F961708F0961B6D
:10180000881F7A95C9F780950895A1E21A2EAA1B20
:10181000BB1BFD010DC0AA1FBB1FEE1FFF1FA217A0
:10182000B307E407F50720F0A21BB30BE40BF50B9D
:10183000661F771F881F991F1A9469F76095709526
:10184000809590959B01AC01BD01CF010895EE0FED
:10185000FF1F0590F491E02D09940F931F93CF93F0
:10186000DF938230910510F482E090E0E091EE0188
:10187000F091EF0130E020E0B0E0A0E0309799F483
:101880002115310509F44AC0281B390B24303105D4
:10189000D8F58A819B816115710589F1FB019383DC
:1018A0008283FE0111C0408151810281138148175A
:1018B0005907E0F04817590799F4109761F012960C
:1018C0000C93129713961C933296CF01DF91CF9110
:1018D0001F910F9108950093EE011093EF01F4CF43
:1018E0002115310551F04217530738F0A901DB01EA
:1018F0009A01BD01DF01F801C1CFEF01F9CF90934B
:10190000EF018093EE01CDCFFE01E20FF31F819333
:1019100091932250310939832883D7CF2091EC014C
:101920003091ED01232B41F420910A0130910B01FC
:101930003093ED012093EC012091080130910901D1
:101940002115310541F42DB73EB740910C0150915E
:101950000D01241B350BE091EC01F091ED01E21734
:10196000F307A0F42E1B3F0B2817390778F0AC01C2
:101970004E5F5F4F2417350748F04E0F5F1F50939F
:10198000ED014093EC01819391939FCFF0E0E0E073
:101990009CCFCF93DF930097E9F0FC01329713823D
:1019A0001282A091EE01B091EF01ED0130E020E054
:1019B0001097A1F420813181820F931F2091EC01B7
:1019C0003091ED012817390709F061C0F093ED015E
:1019D000E093EC01DF91CF910895EA01CE17DF0784
:1019E000E8F54A815B819E0141155105B1F7E90196
:1019F000FB83EA8349915991C40FD51FEC17FD076A
:101A000061F4808191810296840F951FE901998389
:101A10008883828193819B838A83F0E0E0E0129641
:101A20008D919C9113970097B9F52D913C91119749
:101A3000CD010296820F931F2091EC013091ED01B0
:101A40002817390739F6309751F51092EF011092A7
:101A5000EE01B093ED01A093EC01BCCFD383C28320
:101A600040815181840F951FC817D90761F44E5FDB
:101A70005F4F88819981480F591F518340838A8124
:101A80009B81938382832115310509F0B0CFF093B8
:101A9000EF01E093EE019ECFFD01DC01C0CF138288
:101AA0001282D7CFB0E0A0E0E8E5FDE00C940D0B8A
:101AB0008C01009751F4CB010E942D0C8C01C801C0
:101AC000CDB7DEB7E0E10C94290BFC01E60FF71F60
:101AD0009C0122503109E217F30708F49DC0D90197
:101AE000CD91DC911197C617D70798F0C530D10575
:101AF00030F3CE0104978617970708F3C61BD70B60
:101B00002297C193D1936D937C93CF010E94C90C0E
:101B1000D6CF5B01AC1ABD0A4C018C0E9D1EA09164
:101B2000EE01B091EF01512C412CF12CE12C1097DA
:101B300031F58091EC019091ED018815990509F03E
:101B40005CC04616570608F058C080910801909175
:101B50000901009741F48DB79EB740910C01509157
:101B60000D01841B950BE817F90708F055C0F09399
:101B7000ED01E093EC01F90171836083A0CF8D91B9
:101B80009C91119712966C90129713967C901397D4
:101B9000A815B90559F56C0142E0C40ED11CCA1450
:101BA000DB0420F1AC014A195B09DA0112961597A2
:101BB00080F06282738251834083D9016D937C935C
:101BC000E114F10471F0D7011396FC93EE93129790
:101BD00076CF22968C0F9D1FF90191838083F301AC
:101BE000EFCFF093EF01E093EE0169CF481659066D
:101BF00008F42C017D01D3019ACFCB010E942D0C5A
:101C00007C01009749F0AE01B8010E940F0EC80197
:101C10000E94C90C870153CF10E000E050CFFB01B8
:101C2000DC0102C001900D9241505040D8F7089558
:101C3000FB01DC018D91019080190110D9F3990B02
:101C40000895FB01DC0101900D920020E1F7089559
:101C500010E0CBE7D0E004C0FE010E94270C2196E3
:0A1C6000CC37D107C9F7F894FFCF85
:101C6A00890289020000A0410000F0018000000002
:101C7A0000004201AC00D9008F010A01E800FC0013
:101C8A00737400736C006100620063007300670084
:081C9A00690064000D0A00005E
:00000001FF
